:04000000E8EF00F035
:10000800FACF20F0FBCF21F0E9CF22F0EACF23F09E
:10001800E1CF24F0E2CF25F0D9CF26F0DACF27F0D0
:10002800F3CF28F0F4CF29F0F6CF2AF0F7CF2BF052
:10003800F8CF2CF0F5CF2DF0F2A401D001D0A7D045
:10004800F294D6508A0FD66E4CB002D08A9001D066
:100058008A8049B002D08A9601D08A864EB002D0F2
:100068008A9A01D08A8A4BB002D08A9801D08A88AD
:100078004DB002D08B9401D08B844AB002D08998BD
:1000880001D08988114A122A3E50121802E13D50C7
:100098001118D8A401D001D003D0000E4C6E00D0A6
:1000A8003850121802E137501118D8A401D001D0E5
:1000B80003D0000E496E00D04250121802E14150A0
:1000C8001118D8A401D001D003D0000E4E6E00D074
:1000D8003C50121802E13B501118D8A401D001D0AD
:1000E80003D0000E4B6E00D04050121802E13F5072
:1000F8001118D8A401D001D003D0000E4D6E00D045
:100108003A50121802E139501118D8A401D001D080
:1001180003D0000E4A6E00D01250050A2D0ED8B436
:100128001118D8A401D001D029D0010E4C6E010EAF
:10013800496E010E4E6E010E4B6E010E4D6E010E94
:100148004A6E0BC03DF00CC03EF005C037F006C04B
:1001580038F00FC041F010C042F009C03BF00AC0AF
:100168003CF00DC03FF00EC040F007C039F008C0A9
:100178003AF0000E126E000E116E00D0010E01262C
:10018800000E0222000E0322000E042200D02DC011
:10019800F5FF2CC0F8FF2BC0F7FF2AC0F6FF29C0D7
:1001A800F4FF28C0F3FF27C0DAFF26C0D9FF25C017
:1001B800E2FF24C0E1FF23C0EAFF22C0E9FF21C01B
:1001C800FBFF20C0FAFF1100ACEF02F09EA601D0A1
:1001D80001D0A4D09E96C7B401D001D012D0C7BA1E
:1001E80001D001D00ED0000E136EC9CF17F01750F2
:1001F800940AD8A401D001D08FD0010E146E8CD0EF
:100208008BD0C7A401D001D026D0C7BA01D001D065
:1002180022D01450D8B401D001D01DD0C9CF17F0C6
:10022800155020EE1FF0DF6201D001D00DD0000E76
:10023800016E000E026E000E036E000E046E010EBB
:10024800166E410EC96E02D04E0EC96E000E146EA7
:10025800090E136E61D0C7AA01D001D05DD0145029
:10026800D8B401D001D058D03BD03AD0000E156E8A
:10027800C9CF18F01850151A020E136E4DD0C9CFF9
:1002880019F01950151A030E136E46D0C9CF1AF07B
:100298001A50151A040E136E3FD0C9CF1BF01B500D
:1002A800151A050E136E38D0C9CF1CF01C50151A3C
:1002B800060E136E31D0C9CF1DF01D50151A070E4A
:1002C800136E2AD0C9CF1EF01E50151A080E136ED1
:1002D80023D0C9CF1FF0090E136E1ED01DD01CD01D
:1002E8001350000AD8B4C2D7020AD8B4C8D7010A32
:1002F800D8B4CCD7070AD8B4D0D7010AD8B4D4D741
:10030800030AD8B4D8D7010AD8B4DCD70F0AD8B4AE
:10031800E0D702D001D000D0C68800D01650D8B49B
:1003280001D001D06FD01950470DF3CF2EF0F4CF84
:100338002FF0000E316EFF0E306E07EC02F03E0E0D
:100348002E240B6E000E2F200C6E1A50470DF3CF83
:100358002EF0F4CF2FF0000E316EFF0E306E07EC4A
:1003680002F03E0E2E24056E000E2F20066E1B5046
:10037800470DF3CF2EF0F4CF2FF0000E316EFF0EA5
:10038800306E07EC02F03E0E2E24096E000E2F2070
:100398000A6E1C50470DF3CF2EF0F4CF2FF0000E4D
:1003A800316EFF0E306E07EC02F03E0E2E240F6EFB
:1003B800000E2F20106E1D50470DF3CF2EF0F4CFF6
:1003C8002FF0000E316EFF0E306E07EC02F03E0E7D
:1003D8002E240D6E000E2F200E6E1E50470DF3CFEB
:1003E8002EF0F4CF2FF0000E316EFF0E306E07ECBA
:1003F80002F03E0E2E24076E000E2F20086E000E0F
:10040800166E00D01200326E000E346E325031AECD
:1004180001D001D009D0306C311ED8B0312A326EEB
:10042800010E346E325000D02FAE01D001D007D06B
:100438002E6C2F1ED8B02F2A010E341A00D0000EB1
:10044800366E000E356E31503010D8B401D001D060
:1004580028D0326E010E336E325005D0D890303627
:100468003136332A00D031AE01D001D0F7D701D0D0
:1004780000D0D8903536363630502E5C31502F5853
:10048800D8A001D001D006D030502E5E31502F5A5E
:10049800358000D0D89031323032332EEAD701D0AF
:1004A80000D03450D8B401D001D005D0356C361EF8
:1004B800D8B0362A00D035C02EF036C02FF000D084
:1004C8001200E1EC02F0C5EC02F0D4EC02F08DEC85
:1004D80002F0D58E9292F28E8A8400D0EAEC00F077
:1004E800150E015C340E0258000E0358000E045815
:1004F800D8B001D001D007D01850D8B401D001D05D
:1005080002D08A9401D08A840400E8D7E7D7E8EFBC
:1005180000F0F28AF184400ED56E8A0ED66E000E77
:100528003E6E3E0E3D6E000E386E610E376E000E4A
:100538003C6E610E3B6E000E426E610E416E000E07
:10054800406E610E3F6E000E3A6E610E396E1200FB
:1005580000EE01F01F0EEE6AE806FDE1D00EF66E21
:10056800050EF76E000EF86E00EE43F010EE0CF07C
:100578000900F5CFEEFFE550E150FAE1000165EF23
:1005880002F0C70E0F010F013A170F010F01399B37
:10059800939093969398939A949492989394120024
:1005A800180E9412940EC86EC68AC650F00B06092F
:1005B800C66EC580D08E9D961200FC0ED316D388C9
:1005C800D38AD38C9B8C1200323232323232010100
:0405D800010101011B
:020000040020DA
:08000000FFFFFFFFFFFFFFFF00
:020000040030CA
:0E000000FF380E1FFFBC05FF0FC00FE00F40C2
:00000001FF
